:100000000C9465000C9482000C9482000C94820085
:100010000C9482000C9482000C9482000C94820058
:100020000C9482000C9482000C9482000C94820048
:100030000C9482000C9482000C9482000C94820038
:100040000C9482000C9482000C9482000C94820028
:100050000C948200B904B9040B05CF04C404C40491
:100060003A05ED04A705BC05E605FB05D105BC0571
:10007000E605FB05D105E605FB051F06D5063B0792
:10008000A506590608076807BD06140A3A0A4E0A6B
:10009000280A600A870A9B0A740AAE0AC20AE10AA1
:1000A0007F0B4F0C2F0BDB0C790D490E290DEF0E3A
:1000B000F10EF30EF50EF70EF90EFB0E150F170FDE
:1000C000190F1B0F1D0F1F0F210F11241FBECFE58E
:1000D000D8E0DEBFCDBF11E0A0E6B0E0EAE9F8E28B
:1000E00002C005900D92A03CB107D9F722E0A0EC28
:1000F000B1E001C01D92A930B207E1F70E941D09CD
:100100000C944B140C9400008F9A8E9A8D9A8C9AB2
:10011000B99AB89A0895979888230CF4979A969864
:1001200086FD969A959885FD959A949884FD949A63
:10013000C19A8AEB8A95F1F700C0C1988AEB8A953B
:10014000F1F700C00895CF93C82FC09AC1980E94BC
:100150008B008C2F8295807F0E948B00CF91089519
:100160000F931F93CF93DF9300D0CDB7DEB78C01F1
:100170001A821982E981FA81E80FF91F80818823A8
:10018000C9F0E981FA81E00FF11F80810E94A3008C
:1001900089819A8101969A8389838FE391E00197FF
:1001A000F1F700C00000E981FA81E00FF11F8081C2
:1001B0008111E7CF0F900F90DF91CF911F910F9199
:1001C0000895CF93C82FC098C1980E948B008C2FA0
:1001D0008295807F0E948B00CF9108952FEF80E75A
:1001E00092E0215080409040E1F700C00000C098AC
:1001F000C19880E30E948B008FE39CE90197F1F79F
:1002000000C0000080E30E948B0087E592E0019728
:10021000F1F700C0000080E30E948B0087E592E0C8
:100220000197F1F700C0000088E20E948B0090EF78
:100230009A95F1F788E20E94E10020EF2A95F1F704
:1002400088E00E94E10080EF8A95F1F781E00E944A
:10025000E1008FE79EE30197F1F700C0000086E020
:100260000E94E10090EF9A95F1F78CE00E94E10086
:1002700020EF2A95F1F70895CF93DF93EC01862FB5
:1002800080680E94E100CE010E94B000DF91CF9112
:100290000895682F80E690E00E943C01089580E078
:1002A0000E94490180E40E94490184E10E944901C1
:1002B00084E50E9449010895CF93C82F862F806856
:1002C000840F0E94E1008C2F0E94A300CF9108951B
:1002D0008EE1DB9AE3E5F3E03197F1F700C000002F
:1002E000DB98E3E5F3E03197F1F700C000008150BF
:1002F00081F708958823B1F18CEEDB9AE3E5F3E012
:100300003197F1F700C00000DB98E3E5F3E03197A7
:10031000F1F700C00000815081F788E291E0DB9A9C
:10032000E3EAF2E03197F1F700C00000DB98E3EA7E
:10033000F2E03197F1F700C00000019781F780ECFF
:1003400092E0DB9AE7E3F2E03197F1F700C00000BA
:10035000DB98E7E3F2E03197F1F700C00000019786
:1003600081F7089588E291E0DB9AE3EAF2E03197C1
:10037000F1F700C00000DB98E3EAF2E03197F1F713
:1003800000C00000019781F78CEEDB9AE3E5F3E013
:100390003197F1F700C00000DB98E3E5F3E0319717
:1003A000F1F700C00000815081F780E691E0DB9A10
:1003B000EFE6F4E03197F1F700C00000DB98EFE6DC
:1003C000F4E03197F1F700C00000019781F708953C
:1003D000BA98BB98C29AC39A84B38C6F84BBD49AE0
:1003E00087B3836087BB81B3806F81BB8AB38C7F07
:1003F0008ABB87B3806A87BBBE98899A84B38360BF
:1004000084BB8A988AB38C608ABB089586B187685A
:1004100086B93E9A08950E94E801DA9A0E94340F44
:100420000E9484002FEF89E698E12150804090409F
:10043000E1F700C000000E94EE000E94430F0E94FE
:1004400006020895633041F4853011F4A8980895A8
:10045000863049F4A9980895853011F4A89A089532
:10046000863009F4A99A08958F929F92AF92BF9215
:10047000EF92FF920F931F93CF93DF93F82E4A01D1
:100480005B01E22E0E94250FC501B4010E94EC0F12
:1004900027E73CEC4BE251E40E947A100E94BD0F2A
:1004A000EB01DF73DC01CB01072E7EE0B695A7954B
:1004B000979587957A95D1F7702D8C011F734F2DE5
:1004C00060E081E20E94E20E8D2F8F734F2D6C2F22
:1004D00080640E94E20E812F8F734F2D602F806405
:1004E0000E94E20E4F2D60E080EC0E94E20E82E05E
:1004F000E81661F083E0E81679F081E0E81212C0B6
:100500004F2D60E280E20E94E20E11C04F2D62E0AA
:1005100080E20E94E20E0BC04F2D68E280E20E9452
:10052000E20E05C04F2D60E880E20E94E20E6E2DC3
:100530008F2D0E9422020E94340FDF91CF911F91D4
:100540000F91FF90EF90BF90AF909F908F90089584
:100550002FEF3FE0281B390B832F8F70653041F45C
:1005600041E0622F806F0E94E20E80E090E00895EB
:10057000663041F442E0622F806F0E94E20E80E01C
:1005800090E008958FEF9FEF0895829904C0829BB9
:10059000FECF81E0089580E00895CF93DF9300D0EF
:1005A000CDB7DEB786B3198286B3829581708A8310
:1005B0008091EF01882381F08091F001882361F020
:1005C0008A81811109C08981882331F0EFEEF1E041
:1005D00082818F5F82838BC08091EF01811110C077
:1005E0008091F001882361F08A81811109C089819D
:1005F000811106C0EFEEF1E082818F5F828377C0C8
:100600008091EF01811110C08091F00181110CC027
:100610008A81882349F08981811106C0EFEEF1E0DB
:1006200082818F5F828363C08091EF01882381F094
:100630008091F00181110CC08A81882349F0898161
:10064000882331F0EFEEF1E082818F5F82834FC02B
:100650008091EF01882381F08091F001882361F07F
:100660008A81882349F08981811106C0EFEEF1E08B
:1006700083818F5F83833BC08091EF01882381F06A
:100680008091F00181110CC08A81811109C089819A
:10069000811106C0EFEEF1E083818F5F838327C075
:1006A0008091EF01811110C08091F00181110CC087
:1006B0008A81811109C08981882331F0EFEEF1E050
:1006C00083818F5F838313C08091EF0181110FC0FD
:1006D0008091F001882359F08A81882341F0898133
:1006E000882329F0EFEEF1E083818F5F838380918F
:1006F000F101843021F41092F10181E009C0809170
:10070000F201843021F41092F20182E001C080E015
:100710009A81EFEEF1E0908399819183E7ECF0E02C
:100720003197F1F700C000000F900F90DF91CF914B
:1007300008952FEF829FC001112464E670E00E94AB
:10074000E710609547E081E10E94E20E089585364A
:10075000F8F429E1829FC001112464E670E00E9450
:10076000E710655B70E080E090E00E94EE0F2DECFA
:100770003CEC43E252E40E947A100E94BD0F872FA6
:100780008F7042E080670E94E20E80E090E0089562
:100790008FEF9FEF0895CF93C0E08C2F0E94A703A7
:1007A0008FE19EE40197F1F700C00000CF5FC536EE
:1007B000A1F7CF9108957F70853019F0863099F0B8
:1007C00024C0442341F043E0872F80670E94E20E5B
:1007D00080E090E0089543E0872F806F0E94E20E52
:1007E00080E090E00895442341F044E0872F806743
:1007F0000E94E20E80E090E0089544E0872F806F31
:100800000E94E20E80E090E008958FEF9FEF089540
:10081000CF93DF93C0E0D0E060E0CE010E940714E8
:100820002196C138D105C1F7DF91CF910895CF93BB
:10083000DF93D82F0E9468010E944F0160E085E796
:1008400090E00E943C0160E48AE890E00E943C0154
:1008500064E18FE990E00E943C01C5E343E064E17C
:100860008C2F0E945C012FEF89E698E12150804097
:100870009040E1F700C00000C150C03379F7D111BA
:100880000E94080480E00E947A01DA98DF91CF91FB
:10089000089517B8369A3699FECF64B175B180E0E5
:1008A00090E00E94EC0F2CEA3CE14AE75FE30E94F3
:1008B0007A1026E933E443EB50E40E947A1020E0FA
:1008C00030E040E251E40E944B0F0E94BD0F609364
:1008D000C8010895CF93DF9300D0CDB7DEB71A8259
:1008E0001982389A369A3699FECF84B195B19A8397
:1008F0008983369A3699FECF24B135B189819A81A0
:10090000820F931F969587959A83898389819A810F
:10091000843F914018F41092C90103C081E0809394
:10092000C9010F900F90DF91CF910895E3EFF1E0AF
:10093000108211821282138214821582168217820B
:10094000118610861386128685E084878587178630
:100950001686118A108A128A138A089590E0FC0183
:100960003197E830F10508F0B3C0E65DFF4F0C9415
:100970001D11E3EFF1E04081518162817381248593
:1009800085E00E9434020895E3EFF1E0448155814F
:1009900066817781258586E00E9434020895409122
:1009A000FB015091FC018FEF9FE0489F9001499F10
:1009B000300D589F300D1124AFE0BAEE0E94231184
:1009C00065E00024880F991F001C880F991F001CE8
:1009D000892F902D0E94A80208954091FD01509109
:1009E000FE018FEF9FE0489F9001499F300D589F77
:1009F000300D1124AFE0BAEE0E94231166E000240E
:100A0000880F991F001C880F991F001C892F902D9B
:100A10000E94A802089580910502811107C041E05B
:100A200060E070E085E00E94DB0306C040E060E02B
:100A300070E085E00E94DB03E3EFF1E04685578537
:100A40008FEF9FE0489F9001499F300D589F300DD8
:100A5000112436952795A9E9B6EC0E942311BC0113
:100A6000660F672F661F770B7195428985E00E949C
:100A7000DB03089580910602811107C041E060E028
:100A800070E086E00E94DB0306C040E060E070E0BA
:100A900086E00E94DB03E3EFF1E0408951898FEFAC
:100AA0009FE0489F9001499F300D589F300D1124C1
:100AB00036952795A9E9B6EC0E942311BC01660F73
:100AC000672F661F770B7195438985E00E94DB03D2
:100AD0000895CF92DF92EF92FF920F931F93CF93DF
:100AE000DF93022F2223C1F0EA01C20FD11D10E0D3
:100AF0000F2EFAE0CF2ED12CE12CF12CF02DA701F6
:100B000096010E94FB10605D6A93622F732F842F01
:100B1000952F1F5F0113F3CFDF91CF911F910F919D
:100B2000FF90EF90DF90CF9008950F931F93CF9396
:100B3000DF93442309F474C0862F90E08B30910535
:100B400008F01DC3FC01EE5CFF4F0C941D1140E04A
:100B500060E080E20E945C0140E060E480E20E948C
:100B60005C0140E064E180E20E945C0140E064E5F9
:100B700080E20E945C0103C340E060E08EE30E94DB
:100B80005C0140E060E480E20E945C0140E064E1DE
:100B900080E20E945C0140E064E580E20E945C012A
:100BA000EEC240E060E080E20E945C0140E060E470
:100BB0008EE30E945C0140E064E180E20E945C01FF
:100BC00040E064E580E20E945C01D9C240E060E060
:100BD00080E20E945C0140E060E480E20E945C01EF
:100BE00040E064E18EE30E945C0140E064E580E265
:100BF0000E945C01C4C240E060E080E20E945C01AF
:100C000040E060E480E20E945C0140E064E180E258
:100C10000E945C0140E064E58EE30E945C01AFC28B
:100C2000222309F482C1862F90E0FC013197E8303D
:100C3000F10508F0A4C2E35CFF4F0C941D118091F4
:100C4000FF018330E9F028F4813041F0823079F0FF
:100C500030C08430F1F0853029F12BC0EAECF1E0AE
:100C600083E5828F89E4838F8EE4848F22C0EAEC4F
:100C7000F1E084E5828F82E5838F8EE4848F19C052
:100C8000EAECF1E083E5828F81E5838F82E5848F52
:100C900010C0EAECF1E080E2828F84E4838F83E489
:100CA000848F07C0EAECF1E08FE4828F86E4838FC3
:100CB000848F809100028330E9F028F4813041F084
:100CC000823079F030C08430F1F0853029F12BC0CA
:100CD000EAECF1E083E5858F89E4868F8EE4878FE7
:100CE00022C0EAECF1E084E5858F82E5868F8EE410
:100CF000878F19C0EAECF1E083E5858F81E5868F67
:100D000082E5878F10C0EAECF1E080E2858F84E411
:100D1000868F83E4878F07C0EAECF1E08FE4858F4C
:100D200086E4868F878FCAECD1E041E160E08D8D4B
:100D30000E945C0142E160E08E8D0E945C0143E113
:100D400060E08F8D0E945C011AC26091FB0170917E
:100D5000FC0180E090E022E048ED51E00E9469054E
:100D6000CAECD1E04EE060E48E850E945C014FE069
:100D700060E48F850E945C0102C26091FD01709168
:100D8000FE0180E090E022E04BED51E00E94690519
:100D9000CAECD1E04EE060E489890E945C014FE03A
:100DA00060E48A890E945C01EAC16091F30170915C
:100DB000F4018091F5019091F60127E04AEC51E0B1
:100DC0000E946905CAECD1E047E064E188810E9495
:100DD0005C0149E064E189810E945C014AE064E1D0
:100DE0008A810E945C014BE064E18B810E945C017E
:100DF0004DE064E18C810E945C014EE064E18D81F4
:100E00000E945C014FE064E18E810E945C01B7C1E9
:100E10006091F7017091F8018091F9019091FA01C8
:100E200027E041ED51E00E946905CAECD1E047E0BE
:100E300064E18F810E945C0149E064E188850E9441
:100E40005C014AE064E189850E945C014BE064E159
:100E50008A850E945C014DE064E18B850E945C0103
:100E60004EE064E18C850E945C014FE064E18D8579
:100E70000E945C0184C180910502811104C08BE253
:100E80008093EA0103C08DE28093EA016091010240
:100E90007091020280E090E023E04EED51E00E946C
:100EA0006905CAECD1E047E064E588A10E945C01D5
:100EB00048E064E58C890E945C014AE064E58D8924
:100EC0000E945C014BE064E58E890E945C0157C181
:100ED00080910602811104C08BE28093EB0103C074
:100EE0008DE28093EB01609101027091020280E03B
:100EF00090E023E041EE51E00E946905CAECD1E0A8
:100F000047E064E589A10E945C0148E064E58F89BF
:100F10000E945C014AE064E5888D0E945C014BE020
:100F200064E5898D0E945C012AC1813009F46CC09E
:100F300020F0823009F4CFC022C160E084EB90E061
:100F40000E943C0160E489EC90E00E943C0164E175
:100F50008EED90E00E943C0164E583EF90E00E94FA
:100F60003C01CAECD1E041E160E08A8D0E945C0165
:100F700042E160E08B8D0E945C0143E160E08C8D7A
:100F80000E945C014EE060E48E850E945C014FE0AF
:100F900060E48F850E945C0147E064E188810E94E3
:100FA0005C0149E064E189810E945C014AE064E1FE
:100FB0008A810E945C014BE064E18B810E945C01AC
:100FC0004DE064E18C810E945C014EE064E18D8122
:100FD0000E945C014FE064E18E810E945C0147E069
:100FE00064E588A10E945C0148E064E58C890E9468
:100FF0005C014AE064E58D890E945C014BE064E598
:101000008E890E945C01BBC060E084EB90E00E948E
:101010003C0160E489EC90E00E943C0164E18EEDCB
:1010200090E00E943C0164E583EF90E00E943C0167
:10103000CAECD1E041E160E08D8D0E945C0142E1AB
:1010400060E08E8D0E945C0143E160E08F8D0E9424
:101050005C014EE060E489890E945C014FE060E43D
:101060008A890E945C0147E064E18F810E945C01F3
:1010700049E064E188850E945C014AE064E1898579
:101080000E945C014BE064E18A850E945C014DE0B6
:1010900064E18B850E945C014EE064E18C850E94D6
:1010A0005C014FE064E18D850E945C0147E064E5EE
:1010B00089A10E945C0148E064E58F890E945C017F
:1010C0004AE064E5888D0E945C014BE064E5898D0F
:1010D0000E945C0154C060E088E091E00E943C0105
:1010E00060E48DE191E00E943C0164E182E391E0E3
:1010F0000E943C0164E582E491E00E943C0108EC1E
:1011000011E0F801608170E080E090E023E04CEEB7
:1011100051E00E946905CAECD1E04DE064E18AA18A
:101120000E945C014FE064E18BA10E945C0140E100
:1011300064E18CA10E945C01F8018181882381F027
:1011400040E164E18FE40E945C0141E164E18EE4EE
:101150000E945C0142E164E180E20E945C010FC0F8
:1011600040E164E18FE40E945C0141E164E186E4D6
:101170000E945C0142E164E186E40E945C01DF912F
:10118000CF911F910F9108950F931F93CF93DF93EA
:10119000CDB7DEB764970FB6F894DEBF0FBECDBFF4
:1011A00060E085E591E00E943C011F9282E38F930D
:1011B0001F9290E39F931F928F938FE691E09F93EE
:1011C0008F931F9284E18F938E010F5F1F4F1F93A8
:1011D0000F930E94461160E4C8010E943C0164E143
:1011E00084E891E00E943C0164E589E991E00E9475
:1011F0003C010FB6F894DEBF0FBECDBF64960FB6AC
:10120000F894DEBF0FBECDBFDF91CF911F910F913C
:1012100008950E94CB0384E60E9499030E94C408AB
:1012200081E00E947A012FEF83ED90E3215080400E
:101230009040E1F700C0000008950E940B020E9458
:1012400009090E944F0160E48EEA91E00E943C018E
:101250001092C7011092C6011092C5011092C401EC
:101260000E94960420E040E060E080E00E94950546
:101270002FEF8EE994E2215080409040E1F700C0CA
:1012800000000E94CD02C82F0E94C502D82F00E0A6
:1012900010E00F2EF9E02F2EF02DFF24F3940F2EE7
:1012A000F5E03F2EF02D6894EE24E1F80F2EF3EFD9
:1012B000CF2EF1E0DF2EF02D0F2EFAE48F2E9924A1
:1012C0009394F02D0F2EF0E44F2EF2E45F2EFFE00A
:1012D0006F2E712CF02D0F2EF8ECAF2EF1E0BF2EFB
:1012E000F02D2DC01F2D19C01F2D17C01F2D15C08B
:1012F0001F2D13C01F2D11C01F2D0FC01F2D0DC07E
:101300001F2D0BC01F2D09C01F2D07C01F2D05C08D
:101310001F2D03C01F2D01C01F2D0E94CD02C82FFD
:101320000E94C502D82F112351F02091C60140918F
:10133000C5016091C301802F0E94950510E0809146
:10134000C701882331F01092C7018091C3010E9428
:10135000AE048091C501811155C08091C6018111F3
:1013600022C1013089F018F00230E1F0D6CFC1304F
:1013700009F41AC5C23009F419C5DD2371F2F092DF
:10138000C501F092C301C9CFC13009F411C5C23003
:1013900009F410C5DD2309F4C0CFF092C5013092E5
:1013A000C301BBCFC13051F0C23059F0DD2359F039
:1013B000F092C5012092C3011F2D05C000E01F2D32
:1013C00002C00F2D1F2D0E946A040E944904F501DE
:1013D000808190E02091C1013091C2018217930772
:1013E00039F431812091C001321719F01F2D01C04D
:1013F0001F2D9093C2018093C101F50181818093DB
:10140000C0018BCF8091C601811187CFE091C301CC
:101410008E2F90E0FC013197EA30F10508F07DCF86
:10142000EB5BFF4F0C941D11C13021F484E08093DD
:10143000C301C1C4C23021F483E08093C301BBC4A3
:10144000DD2309F46ACF1092C501F092C601B3C43E
:10145000C13019F4E092C301AEC4C23019F4F09265
:10146000C301A9C4DD2309F458CF1092C501F0923D
:10147000C601A1C4C13021F483E08093C3019BC4A1
:10148000C23021F484E08093C30195C4DD2309F4C4
:1014900044CF1092C501F092C6018DC4C13019F439
:1014A000F092C30188C4C23019F4E092C30183C42E
:1014B000DD2309F432CF1092C501F092C6017BC43E
:1014C000C13021F4F8E0F093C30175C4C23021F4B7
:1014D00027E02093C3016FC4DD2309F41ECF1092CF
:1014E000C501F092C60167C4C13021F486E0809343
:1014F000C30161C4C23019F43092C3015CC4DD235E
:1015000009F40BCF1092C501F092C60154C4C1304A
:1015100021F497E09093C3014EC4C23021F4E8E077
:10152000E093C30148C4DD2309F4F7CE1092C5014E
:10153000F092C60140C4C13019F43092C3013BC4DB
:10154000C23021F4F6E0F093C30135C4DD2309F481
:10155000E4CE1092C501F092C6012DC4C13021F431
:101560002AE02093C30127C4C23021F48AE080938B
:10157000C30121C4DD2309F4D0CE1092C501F0923D
:10158000C60119C4C13019F42092C30114C4C23079
:1015900019F42092C3010FC4DD2309F4BECE80E00C
:1015A0000E941704BACEE091C3018E2F90E0FC0197
:1015B0003197E830F10508F0B0CEE15BFF4F0C94B5
:1015C0001D11C130F9F4F092C701F6018485823013
:1015D00071F018F4813041F012C0833061F0853031
:1015E00071F4F601F486E7C3F601E486E4C383E010
:1015F000F6018487E0C384E0F6018487DCC3F6014A
:101600003486D9C3C230F9F4F092C701F60184855B
:10161000823079F018F4813049F011C0833061F0E4
:10162000853069F484E0F6018487C5C3F601348609
:10163000C2C3F601F486BFC3F601E486BCC383E0EF
:10164000F6018487B8C3DD2309F467CE1092C60182
:101650001092C7011092C5011092C301ACC3C130F2
:10166000F1F4F092C701F6018085918586349105E9
:1016700028F086E490E0918780879DC32091C40183
:10168000222319F0213031F02DCE0196F6019187F9
:10169000808791C30A96F601918780878CC3C230F8
:1016A000C9F4F092C701F60180859185009709F48D
:1016B00082C32091C401222319F0213031F014CECD
:1016C0000197F6019187808776C30A97F601918783
:1016D000808771C3DD2309F420CE8091C40181117C
:1016E00003C0F092C40167C31092C4011092C601F6
:1016F0001092C7011092C5011092C3015CC3C130A2
:1017000009F05EC0F092C701F60180819181A2814B
:10171000B3818034F2E49F07FFE0AF07B10530F0FA
:10172000F601408251826282738245C32091C401D6
:101730002230F1F028F4222349F0213081F0D6CD77
:10174000243051F1F8F0253089F1D0CD0196A11D5A
:10175000B11DF60180839183A283B3832CC30A96C3
:10176000A11DB11DF60180839183A283B38323C39E
:101770008C599F4FAF4FBF4FF60180839183A28357
:10178000B38319C388519C4FAF4FBF4FF60180837D
:101790009183A283B3830FC3805F984DAF4FBF4F38
:1017A000F60180839183A283B38305C38056994752
:1017B000AE4FBF4FF60180839183A283B383FBC2F8
:1017C000C23009F056C0F092C701F60180819181C4
:1017D000A281B3810097A105B10509F4ECC2209163
:1017E000C4012230F1F028F4222349F0213081F0A5
:1017F0007FCD243051F1F8F0253089F179CD019772
:10180000A109B109F60180839183A283B383D3C276
:101810000A97A109B109F60180839183A283B3835A
:10182000CAC284569109A109B109F6018083918346
:10183000A283B383C0C2885E9340A109B109F601B7
:1018400080839183A283B383B6C280519742A1095A
:10185000B109F60180839183A283B383ACC2805A1D
:101860009648A140B109F60180839183A283B38396
:10187000A2C2DD2309F451CD8091C401853020F44A
:101880008F5F8093C40197C21092C4011092C60169
:101890001092C7011092C5011092C3018CC2C130D1
:1018A00059F5F092C701F6018289811122C086851F
:1018B00097858A34F1E09F0720F0F60197868686A7
:1018C0007AC22091C401213049F018F0223059F039
:1018D00011CD0196F601978786876DC20A96F601AB
:1018E0009787868768C28C599F4FF60197878687AE
:1018F00062C2F601128A5FC2C23009F046C0F0929D
:10190000C701F6018289882311F1868597858A347B
:10191000F1E09F0720F0F601978686864CC2209161
:10192000C401213049F018F0223059F0E5CC01967D
:10193000F601978786873FC20A96F60197878687C2
:101940003AC28C599F4FF6019787868734C2F601B9
:1019500086859785009709F42EC22091C401213015
:1019600049F018F0223059F0C9CC0197F601978759
:10197000868721C20A97F601978786871CC28456FC
:101980009109F6019787868716C2DD2309F4C5CC35
:101990008091C401823020F48F5F8093C4010BC218
:1019A0001092C4011092C6011092C7011092C50195
:1019B0001092C30100C2C130F9F4F092C701F601E0
:1019C0008585823071F018F4813041F012C0833087
:1019D00061F0853071F4F601F586EDC1F601E5861A
:1019E000EAC183E0F6018587E6C184E0F6018587D8
:1019F000E2C1F6013586DFC1C230F9F4F092C701C9
:101A0000F6018585823079F018F4813049F011C0F3
:101A1000833061F0853069F484E0F6018587CBC1BD
:101A2000F6013586C8C1F601F586C5C1F601E58621
:101A3000C2C183E0F6018587BEC1DD2309F46DCC08
:101A40001092C6011092C7011092C5011092C301F5
:101A5000B2C1C130F1F4F092C701F60182859385DD
:101A60008634910528F086E490E093878287A3C1AD
:101A70002091C401222319F0213031F041CC01968C
:101A8000F6019387828797C10A96F601938782872A
:101A900092C1C230C9F4F092C701F60182859385E4
:101AA000009709F488C12091C401222319F0213044
:101AB00031F028CC0197F601938782877CC10A9781
:101AC000F6019387828777C1DD2309F426CC8091C4
:101AD000C401811103C0F092C4016DC11092C40110
:101AE0001092C6011092C7011092C5011092C30155
:101AF00062C1C13009F05EC0F092C701F601848175
:101B00009581A681B7818034F2E49F07FFE0AF079B
:101B1000B10530F0F60144825582668277824BC16E
:101B20002091C4012230F1F028F4222349F0213021
:101B300081F0EACB243051F1F8F0253089F1E4CB83
:101B40000196A11DB11DF60184839583A683B783F9
:101B500032C10A96A11DB11DF60184839583A68327
:101B6000B78329C18C599F4FAF4FBF4FF601848374
:101B70009583A683B7831FC188519C4FAF4FBF4F3A
:101B8000F60184839583A683B78315C1805F984D42
:101B9000AF4FBF4FF60184839583A683B7830BC1F4
:101BA00080569947AE4FBF4FF60184839583A68335
:101BB000B78301C1C23009F056C0F092C701F601E7
:101BC00084819581A681B7810097A105B10509F4AB
:101BD000F2C02091C4012230F1F028F4222349F010
:101BE000213081F093CB243051F1F8F0253089F188
:101BF0008DCB0197A109B109F60184839583A68352
:101C0000B783D9C00A97A109B109F60184839583E6
:101C1000A683B783D0C084569109A109B109F60102
:101C200084839583A683B783C6C0885E9340A10949
:101C3000B109F60184839583A683B783BCC0805124
:101C40009742A109B109F60184839583A683B783DE
:101C5000B2C0805A9648A140B109F60184839583A9
:101C6000A683B783A8C0DD2309F457CB8091C401B4
:101C7000853020F48F5F8093C4019DC01092C40111
:101C80001092C6011092C7011092C5011092C301B3
:101C900092C0C13059F5F092C701F60183898111D4
:101CA00022C0808991898A34F1E09F0720F0F601F3
:101CB000918A808A80C02091C401213049F018F0B7
:101CC000223059F025CB0196F601918B808B73C0A1
:101CD0000A96F601918B808B6EC08C599F4FF6014E
:101CE000918B808B68C0F601138A65C0C23009F001
:101CF00045C0F092C701F6018389882311F18089DC
:101D000091898A34F1E09F0720F0F601918A808A58
:101D100052C02091C401213049F018F0223059F00E
:101D2000F9CA0196F601918B808B45C00A96F6019F
:101D3000918B808B40C08C599F4FF601918B808B8B
:101D40003AC0F601808991890097A9F12091C401D8
:101D5000213049F018F0223059F0DECA0197F6011F
:101D6000918B808B28C00A97F601918B808B23C0C2
:101D700084569109F601918B808B1DC0DD2309F4F7
:101D8000CCCA8091C401823020F48F5F8093C4015B
:101D900012C01092C4011092C6011092C701109295
:101DA000C5011092C30107C00F2D05C00E2D03C041
:101DB0000E2D01C000E00E94CD02C82F0E94C50276
:101DC000D82FB3CA0F931F93042F10E0F801319757
:101DD000E730F10588F4E95AFF4F0C941D11AA98D9
:101DE0000BC0AB9809C0AC9807C0AD9805C0AE98C1
:101DF00003C0AF9801C0DC9898E29A95F1F78FB9CB
:101E0000779BFECF88E28A95F1F76FB9779BFECF7B
:101E100098E29A95F1F750E0FA013197E730F10531
:101E200088F4E25AFF4F0C941D11AA9A0BC0AB9A8A
:101E300009C0AC9A07C0AD9A05C0AE9A03C0AF9A6C
:101E400001C0DC9A1F910F91089585B38C6F85BBFB
:101E5000DC9A89E58DB981E08EB98FE19EE4019726
:101E6000F1F700C00000089585B38C6F85BBDC9A44
:101E700081E58DB981E08EB98FE19EE40197F1F79C
:101E800000C00000089510BC83E089B988E08AB9D9
:101E90008EE880BD08950E945F0F0C9440100E9450
:101EA000391058F00E94321040F029F45F3F29F0B9
:101EB0000C94291051110C9474100C942F100E9442
:101EC000511068F39923B1F3552391F3951B550BEA
:101ED000BB27AA2762177307840738F09F5F5F4FFD
:101EE000220F331F441FAA1FA9F335D00E2E3AF03C
:101EF000E0E832D091505040E695001CCAF72BD054
:101F0000FE2F29D0660F771F881FBB1F26173707A4
:101F10004807AB07B0E809F0BB0B802DBF01FF27D6
:101F200093585F4F3AF09E3F510578F00C9429107A
:101F30000C9474105F3FE4F3983ED4F38695779544
:101F40006795B795F7959F5FC9F7880F911D96958F
:101F5000879597F90895E1E0660F771F881FBB1FEB
:101F6000621773078407BA0720F0621B730B840B98
:101F7000BA0BEE1F88F7E09508950E94591088F07B
:101F80009F5798F0B92F9927B751B0F0E1F0660F3D
:101F9000771F881F991F1AF0BA95C9F714C0B1307E
:101FA00091F00E947310B1E008950C947310672FA4
:101FB000782F8827B85F39F0B93FCCF386957795AD
:101FC0006795B395D9F73EF4909580957095619596
:101FD0007F4F8F4F9F4F0895E89409C097FB3EF4C1
:101FE00090958095709561957F4F8F4F9F4F992366
:101FF000A9F0F92F96E9BB279395F69587957795E4
:102000006795B795F111F8CFFAF4BB0F11F460FFA3
:102010001BC06F5F7F4F8F4F9F4F16C0882311F0FB
:1020200096E911C0772321F09EE8872F762F05C00F
:10203000662371F096E8862F70E060E02AF09A95AA
:10204000660F771F881FDAF7880F9695879597F99F
:10205000089597F99F6780E870E060E008959FEF2A
:1020600080EC089500240A9416161706180609062F
:10207000089500240A9412161306140605060895FE
:10208000092E0394000C11F4882352F0BB0F40F486
:10209000BF2B11F460FF04C06F5F7F4F8F4F9F4FC6
:1020A000089557FD9058440F551F59F05F3F71F048
:1020B0004795880F97FB991F61F09F3F79F08795AF
:1020C0000895121613061406551FF2CF4695F1DF38
:1020D00008C0161617061806991FF1CF86957105C8
:1020E000610508940895E894BB2766277727CB01FC
:1020F00097F908950E948D100C9440100E943210A0
:1021000038F00E94391020F0952311F00C9429101A
:102110000C942F1011240C9474100E94511070F321
:10212000959FC1F3950F50E0551F629FF001729F7C
:10213000BB27F00DB11D639FAA27F00DB11DAA1F8B
:10214000649F6627B00DA11D661F829F2227B00DD8
:10215000A11D621F739FB00DA11D621F839FA00D63
:10216000611D221F749F3327A00D611D231F849FB3
:10217000600D211D822F762F6A2F11249F5750400A
:102180009AF0F1F088234AF0EE0FFF1FBB1F661F85
:10219000771F881F91505040A9F79E3F510580F04E
:1021A0000C9429100C9474105F3FE4F3983ED4F320
:1021B000869577956795B795F795E7959F5FC1F7F2
:1021C000FE2B880F911D9695879597F9089597FB9B
:1021D000072E16F4009407D077FD09D00E94321123
:1021E00007FC05D03EF4909581959F4F089570951A
:1021F00061957F4F0895A1E21A2EAA1BBB1BFD011A
:102200000DC0AA1FBB1FEE1FFF1FA217B307E407D5
:10221000F50720F0A21BB30BE40BF50B661F771F2D
:10222000881F991F1A9469F760957095809590950D
:102230009B01AC01BD01CF010895EE0FFF1F05907A
:10224000F491E02D0994A29FB001B39FC001A39F18
:10225000700D811D1124911DB29F700D811D1124DF
:10226000911D0895AA1BBB1B51E107C0AA1FBB1FEC
:10227000A617B70710F0A61BB70B881F991F5A9512
:10228000A9F780959095BC01CD010895AEE0B0E02E
:10229000ECE4F1E10C9422140D891E898F89988D4C
:1022A00026E02C831A83098397FF02C080E090E820
:1022B00001979E838D83AE01455E5F4F698D7A8D58
:1022C000CE0101960E9476114D815E8157FD0AC0B4
:1022D0002F813885421753070CF49A01F801E20F59
:1022E000F31F10822E96E4E00C943E14ABE0B0E0B5
:1022F000ECE7F1E10C9414146C017B018A01FC0100
:1023000017821682838181FFCCC1CE0101963C01E8
:10231000F6019381F70193FD859193FF81917F01F0
:10232000882309F4BAC1853239F493FD859193FF6E
:1023300081917F01853229F4B60190E00E946D13EE
:10234000E7CF912C212C312CFFE1F315D8F08B3203
:1023500079F038F4803279F08332A1F4232D2061B2
:102360001DC08D3261F0803369F4232D216016C0C9
:10237000832D8260382EE32DE4603E2E2AC0F32D9B
:10238000F8601DC037FC2DC020ED280F2A3040F02A
:102390008E32B9F436FC81C1232D2064322E19C04F
:1023A00036FE06C08AE0989E200D1124922E11C0A0
:1023B000EAE02E9E200D1124222EF32DF0623F2EF6
:1023C00008C08C3621F4832D8068382E02C08836F0
:1023D00041F4F70193FD859193FF81917F01811174
:1023E000B3CF982F9F7D9554933028F40C5F1F4FE7
:1023F0009FE399830DC0833631F0833771F08335C5
:1024000009F059C021C0F801808189830E5F1F4FF8
:1024100088248394912C530113C02801F2E04F0EBD
:10242000511CF801A080B18036FE03C0692D70E018
:1024300002C06FEF7FEFC5010E9462134C01820161
:10244000F32DFF773F2E16C0280122E0420E511CCB
:10245000F801A080B18036FE03C0692D70E002C093
:102460006FEF7FEFC5010E9457134C01F32DF06809
:102470003F2E820133FC1BC0822D90E08816990606
:10248000B0F4B60180E290E00E946D132A94F4CF7C
:10249000F50137FC859137FE81915F01B60190E02F
:1024A0000E946D1321102A9421E0821A9108811450
:1024B000910471F7E8C0843611F0893641F5F801CE
:1024C00037FE07C060817181828193810C5F1F4F4D
:1024D00008C060817181072E000C880B990B0E5F7C
:1024E0001F4FF32DFF763F2E97FF09C090958095E3
:1024F000709561957F4F8F4F9F4FF0683F2E2AE078
:1025000030E0A3010E94A913882E861845C08537A4
:1025100031F4232D2F7EB22E2AE030E025C0932DFA
:10252000997FB92E8F36C1F018F4883579F0B5C08F
:10253000803719F0883721F0B0C0E92FE061BE2E56
:10254000B4FE0DC0FB2DF460BF2E09C034FE0AC0DE
:10255000292F2660B22E06C028E030E005C020E119
:1025600030E002C020E132E0F801B7FE07C0608130
:102570007181828193810C5F1F4F06C060817181E0
:1025800080E090E00E5F1F4FA3010E94A913882EE8
:102590008618FB2DFF773F2E36FE0DC0232D2E7F94
:1025A000A22E891458F434FE0BC032FC09C0832DCE
:1025B0008E7EA82E05C0B82CA32C03C0B82C01C059
:1025C000B92CA4FE0FC0FE01E80DF11D80818033FF
:1025D00021F49A2D997EA92E09C0A2FE06C0B394BB
:1025E000B39404C08A2D867809F0B394A3FC11C07B
:1025F000A0FE06C0B21488F4280C922C9B180EC0C2
:10260000B21460F4B60180E290E00E946D13B394BE
:10261000F7CFB21418F42B1802C0982C212CA4FE6A
:1026200010C0B60180E390E00E946D13A2FE17C0B7
:10263000A1FC03C088E790E002C088E590E0B60105
:102640000CC08A2D867859F0A1FE02C08BE201C031
:1026500080E2A7FC8DE2B60190E00E946D13891420
:1026600038F4B60180E390E00E946D139A94F7CF9E
:102670008A94F301E80DF11D8081B60190E00E947B
:102680006D138110F5CF222009F442CEB60180E20D
:1026900090E00E946D132A94F6CFF601868197810F
:1026A00002C08FEF9FEF2B96E2E10C943014FC01F7
:1026B0000590615070400110D8F7809590958E0F6D
:1026C0009F1F0895FC016150704001900110D8F7E0
:1026D000809590958E0F9F1F08950F931F93CF9312
:1026E000DF93FB01238121FD03C08FEF9FEF2CC0FF
:1026F00022FF16C046815781248135814217530736
:1027000044F4A081B1819D012F5F3F4F318320832D
:102710008C93268137812F5F3F4F3783268314C0E8
:102720008B01EC01FB010084F185E02D0995892BDB
:10273000E1F6D80116968D919C9117970196179600
:102740009C938E931697CE01DF91CF911F910F919D
:102750000895FA01AA27283051F1203181F1E89437
:102760006F936E7F6E5F7F4F8F4F9F4FAF4FB1E084
:102770003ED0B4E03CD0670F781F891F9A1FA11D7F
:10278000680F791F8A1F911DA11D6A0F711D811D80
:10279000911DA11D20D009F468943F912AE0269F45
:1027A00011243019305D3193DEF6CF010895462FA4
:1027B0004770405D4193B3E00FD0C9F7F6CF462F85
:1027C0004F70405D4A3318F0495D31FD40524193EE
:1027D00002D0A9F7EACFB4E0A695979587957795AB
:1027E0006795BA95C9F700976105710508959B0132
:1027F000AC010A2E06945795479537952795BA95BB
:10280000C9F7620F731F841F951FA01D0895262FFF
:10281000E199FECF9FBB8EBB2DBB0FB6F894E29A19
:10282000E19A0FBE019608952F923F924F925F92C8
:102830006F927F928F929F92AF92BF92CF92DF92D0
:10284000EF92FF920F931F93CF93DF93CDB7DEB735
:10285000CA1BDB0B0FB6F894DEBF0FBECDBF0994C9
:102860002A88398848885F846E847D848C849B8420
:10287000AA84B984C884DF80EE80FD800C811B812E
:10288000AA81B981CE0FD11D0FB6F894DEBF0FBE5D
:0A289000CDBFED010895F894FFCFCD
:10289A00202020202020202020202020202020202E
:1028AA0020202020003C3C53687574646F776E20AA
:1028BA00726571756573743E3E0044657669636539
:1028CA00207368757474696E6720646F776E006927
:1028DA006E2058207365632020202020202020208D
:1028EA0020202000204368616E6E656C3A582C20C7
:1028FA00547970653A5858580020416D706C697463
:10290A007564653A20582E58585B565D200020465B
:10291A007265713A20582E5858582E5858585B48A4
:10292A007A5D0020426961733A2058582E58585BE4
:10293A00565D202020202000566F6C746167652840
:10294A00426174293A582E58585B565D004578748E
:10295A0065726E616C20506F7765723A20585858CC
:10296A002000202053657474696E6773090920205A
:10297A002000202053687574646F776E0920202028
:10298A0020202020004D6F62696C652046756E63B9
:10299A0074696F6E2047656E657261746F7200208C
:1029AA004669726D77617265205625632E25632EFE
:1029BA002563200020204B686F6D4C6162732044B0
:1029CA00657369676E2020200020203C496E697477
:1029DA0069616C697A696E672E2E2E3E2000092085
:1029EA004C6F6164696E672E2E2E202020202000F5
:00000001FF
