:100000000C9470000C948D000C948D000C948D0059
:100010000C948D000C948D000C948D000C948D002C
:100020000C948D000C948D000C948D000C948D001C
:100030000C948D000C948D000C948D000C948D000C
:100040000C948D000C948D000C948D000C948D00FC
:100050000C948D000405040556051A050F050F05BF
:1000600085053805010655061606400655062B0679
:100070001606400655062B06400655062B0640067A
:100080002B06400679062F079507FF06B306620781
:10009000C2071707740D240C510C680C3B0C7E0C26
:1000A000AC0CC30C950CDA0C610DF30C120D310D78
:1000B000490DA5118D0D330E060FE00D990F3F1060
:1000C0001211EC0F38123A123C123E124012421238
:1000D00044125E12601262126412661268126A1290
:1000E00011241FBECFE5D8E0DEBFCDBF12E0A0E6F1
:1000F000B0E0EEE8FFE202C005900D92A434B10733
:10010000D9F722E0A4E4B2E001C01D92A539B207FC
:10011000E1F70E940D0B0C94C5170C9400008F9A08
:100120008E9A8D9A8C9AB99AB89A0895979888233E
:100130000CF4979A969886FD969A959885FD959ACF
:10014000949884FD949AC19A8AEB8A95F1F700C03D
:10015000C1988AEB8A95F1F700C00895CF93C82F14
:10016000C09AC1980E9496008C2F8295807F0E9431
:100170009600CF9108950F931F93CF93DF9300D0F4
:10018000CDB7DEB78C011A821982E981FA81E80FB6
:10019000F91F80818823C9F0E981FA81E00FF11FFE
:1001A00080810E94AE0089819A8101969A83898319
:1001B0008FE391E00197F1F700C00000E981FA8137
:1001C000E00FF11F80818111E7CF0F900F90DF9139
:1001D000CF911F910F910895CF93C82FC098C198C8
:1001E0000E9496008C2F8295807F0E949600CF916E
:1001F00008952FEF80E792E0215080409040E1F792
:1002000000C00000C098C19880E30E9496008FE370
:100210009CE90197F1F700C0000080E30E9496007E
:1002200087E592E00197F1F700C0000080E30E94AB
:10023000960087E592E00197F1F700C0000088E2A0
:100240000E94960090EF9A95F1F788E20E94EC00E8
:1002500020EF2A95F1F788E00E94EC0080EF8A9564
:10026000F1F781E00E94EC008FE79EE30197F1F740
:1002700000C0000086E00E94EC0090EF9A95F1F734
:100280008CE00E94EC0020EF2A95F1F70895CF93BF
:10029000DF93EC01862F80680E94EC00CE010E9463
:1002A000BB00DF91CF910895682F80E690E00E9417
:1002B0004701089580E00E94540180E40E945401A7
:1002C00084E10E94540184E50E9454010895CF9373
:1002D000C82F862F8068840F0E94EC008C2F0E940C
:1002E000AE00CF9108958EE1DB9AE3E5F3E031971C
:1002F000F1F700C00000DB98E3E5F3E03197F1F798
:1003000000C00000815081F708958823B1F18CEE80
:10031000DB9AE3E5F3E03197F1F700C00000DB98EA
:10032000E3E5F3E03197F1F700C00000815081F779
:1003300088E291E0DB9AE3EAF2E03197F1F700C05E
:100340000000DB98E3EAF2E03197F1F700C000002B
:10035000019781F780E691E0DB9AE7E3F2E03197DD
:10036000F1F700C00000DB98E7E3F2E03197F1F726
:1003700000C00000019781F7089588E291E0DB9AC0
:10038000E3EAF2E03197F1F700C00000DB98E3EA1E
:10039000F2E03197F1F700C00000019781F78CEE91
:1003A000DB9AE3E5F3E03197F1F700C00000DB985A
:1003B000E3E5F3E03197F1F700C00000815081F7E9
:1003C00080E691E0DB9AEFE6F4E03197F1F700C0C8
:1003D0000000DB98EFE6F4E03197F1F700C0000091
:1003E000019781F70895CF930E9473010E945A01EB
:1003F00060E085E790E00E94470160E48AE890E0D1
:100400000E94470164E18FE990E00E944701C5E343
:1004100043E064E18C2F0E9467012FEF89E698E1A9
:10042000215080409040E1F700C00000C150C0332F
:1004300079F780E00E948501DA98CF910895BA9803
:10044000BB98C29AC39A84B38C6F84BBD49A87B387
:10045000836087BB81B3806F81BB8AB38C7F8ABB8B
:1004600087B3806A87BBBE98899A84B3836084BB54
:100470008A988AB38C608ABB089586B1876886B9EA
:100480003E9A08950E941F02DA9A0E947D120E94ED
:100490008F002FEF89E698E1215080409040E1F7EE
:1004A00000C000000E94F9000E948C120E943D02D0
:1004B0000895633041F4853011F4A898089586308A
:1004C00049F4A9980895853011F4A89A08958630C2
:1004D00009F4A99A08958F929F92AF92BF92EF92DA
:1004E000FF920F931F93CF93DF93F82E4A015B0186
:1004F000E22E0E946E12C501B4010E94351327E757
:100500003CEC4BE251E40E94C3130E940613EB0142
:10051000DF73DC01CB01072E7EE0B695A79597959A
:1005200087957A95D1F7702D8C011F734F2D60E060
:1005300081E20E942B128D2F8F734F2D6C2F8064C0
:100540000E942B12812F8F734F2D602F80640E9489
:100550002B124F2D60E080EC0E942B1282E0E816F7
:1005600061F083E0E81679F081E0E81212C04F2DC7
:1005700060E280E20E942B1211C04F2D62E080E207
:100580000E942B120BC04F2D68E280E20E942B12BA
:1005900005C04F2D60E880E20E942B126E2D8F2D3A
:1005A0000E9459020E947D12DF91CF911F910F91FD
:1005B000FF90EF90BF90AF909F908F9008952FEF96
:1005C0003FE0281B390B832F8F70653041F441E0E9
:1005D000622F806F0E942B1280E090E008956630B9
:1005E00041F442E0622F806F0E942B1280E090E085
:1005F00008958FEF9FEF0895829904C0829BFECFEC
:1006000081E0089580E00895CF93DF9300D0CDB7C7
:10061000DEB786B3198286B3829581708A83809112
:100620007B02882381F080917C02882361F08A819B
:10063000811109C08981882331F0EBE7F2E08281E2
:100640008F5F82838BC080917B02811110C080916B
:100650007C02882361F08A81811109C0898181111E
:1006600006C0EBE7F2E082818F5F828377C08091E2
:100670007B02811110C080917C0281110CC08A81A3
:10068000882349F08981811106C0EBE7F2E082817D
:100690008F5F828363C080917B02882381F0809189
:1006A0007C0281110CC08A81882349F089818823CA
:1006B00031F0EBE7F2E082818F5F82834FC080915F
:1006C0007B02882381F080917C02882361F08A81FB
:1006D000882349F08981811106C0EBE7F2E083812C
:1006E0008F5F83833BC080917B02882381F0809160
:1006F0007C0281110CC08A81811109C0898181111C
:1007000006C0EBE7F2E083818F5F838327C080918F
:100710007B02811110C080917C0281110CC08A8102
:10072000811109C08981882331F0EBE7F2E08381F0
:100730008F5F838313C080917B0281110FC08091F2
:100740007C02882359F08A81882341F0898188239B
:1007500029F0EBE7F2E083818F5F838380917D0254
:10076000843021F410927D0281E009C080917E02E4
:10077000843021F410927E0282E001C080E09A81F0
:10078000EBE7F2E0908399819183E7ECF0E0319719
:10079000F1F700C000000F900F90DF91CF91089506
:1007A0002FEF829FC001112464E670E00E94301494
:1007B000609547E081E10E942B1208958536F8F498
:1007C00029E1829FC001112464E670E00E94301488
:1007D000655B70E080E090E00E9437132DEC3CEC0C
:1007E00043E252E40E94C3130E940613872F8F70C6
:1007F00042E080670E942B1280E090E008958FEF26
:100800009FEF0895CF93C0E08C2F0E94DE038FE10D
:100810009EE40197F1F700C00000CF5FC536A1F755
:10082000CF9108957F70853019F0863099F024C0FB
:10083000442341F043E0872F80670E942B1280E021
:1008400090E0089543E0872F806F0E942B1280E094
:1008500090E00895442341F044E0872F80670E9490
:100860002B1280E090E0089544E0872F806F0E9473
:100870002B1280E090E008958FEF9FEF089517B856
:10088000369A3699FECF64B175B180E090E00E944F
:1008900035132CEA3CE14AE75FE30E94C31326E9E3
:1008A00033E443EB50E40E94C31320E030E040E225
:1008B00051E40E9494120E9406136093500208951E
:1008C000CF93DF9300D0CDB7DEB71A821982389A62
:1008D000369A3699FECF84B195B19A838983369A38
:1008E0003699FECF24B135B189819A81820F931F49
:1008F000969587959A83898389819A81843F9140CF
:1009000018F41092510203C081E0809351020F90BD
:100910000F90DF91CF910895EFE7F2E010821182FE
:100920001282138214821582168217821186108613
:100930001386128685E08487858717861686118A36
:10094000108A128A138A0895CF93DF93E2E5F2E0CA
:1009500087E0DF01C82F1D92CA95E9F7A9E5B2E04B
:10096000ED0119928A95E9F71092610210926002E6
:10097000109263021092620283E0AAE6B2E0ED01F7
:10098000982F19929A95E9F7ADE6B2E0ED01982F0C
:1009900019929A95E9F7A4E6B2E0ED01982F199221
:1009A0009A95E9F7A7E6B2E0ED01982F19929A958A
:1009B000E9F790E2968F978FE8E7F2E0DF01C82F22
:1009C0001D92CA95E9F7E5E7F2E0DF01C82F1D9215
:1009D000CA95E9F7E2E7F2E0DF011D928A95E9F7AF
:1009E000DF91CF910895E3E9F2E084E6808381838B
:1009F000089590E0FC013297E830F10508F0B3C0AB
:100A0000E65DFF4F0C946614EFE7F2E04081518100
:100A100062817381248585E00E946B020895EFE76F
:100A2000F2E04481558166817781258586E00E94C8
:100A30006B02089540918702509188028FEF9FE0EA
:100A4000489F9001499F300D589F300D1124AFE011
:100A5000BAEE0E946C1465E00024880F991F001CF8
:100A6000880F991F001C892F902D0E94DF02089586
:100A70004091890250918A028FEF9FE0489F900138
:100A8000499F300D589F300D1124AFE0BAEE0E94FF
:100A90006C1466E00024880F991F001C880F991FB2
:100AA000001C892F902D0E94DF02089580919102F1
:100AB000811107C041E060E070E085E00E9412040F
:100AC00006C040E060E070E085E00E941204EFE7BD
:100AD000F2E0468557858FEF9FE0489F9001499F40
:100AE000300D589F300D112436952795A9E9B6ECA5
:100AF0000E946C14BC01660F672F661F770B7195FF
:100B0000428985E00E941204089580919202811129
:100B100007C041E060E070E086E00E94120406C079
:100B200040E060E070E086E00E941204EFE7F2E04F
:100B3000408951898FEF9FE0489F9001499F300D78
:100B4000589F300D112436952795A9E9B6EC0E94DF
:100B50006C14BC01660F672F661F770B7195438974
:100B600085E00E94120408958E3019F08F3031F024
:100B70000895809193020E94DE030895809194026B
:100B80000E94D0030895CF92DF92EF92FF920F93CD
:100B90001F93CF93DF93022F2223C1F0EA01C20FEC
:100BA000D11D10E00F2EFAE0CF2ED12CE12CF12C2C
:100BB000F02DA70196010E944414605D6A93622F94
:100BC000732F842F952F1F5F0113F3CFDF91CF91E8
:100BD0001F910F91FF90EF90DF90CF9008950F93AA
:100BE0001F93CF93DF93442309F474C0862F90E0C2
:100BF0008031910508F0C3C3FC01EE5CFF4F0C94FB
:100C0000661440E060E080E20E94670140E060E43A
:100C100080E20E94670140E064E180E20E94670197
:100C200040E064E580E20E946701A9C340E060E023
:100C30008EE30E94670140E060E480E20E94670169
:100C400040E064E180E20E94670140E064E580E208
:100C50000E94670194C340E060E080E20E94670167
:100C600040E060E48EE30E94670140E064E180E2DE
:100C70000E94670140E064E580E20E9467017FC353
:100C800040E060E080E20E94670140E060E480E2D2
:100C90000E94670140E064E18EE30E94670140E04A
:100CA00064E580E20E9467016AC340E060E080E2A0
:100CB0000E94670140E060E480E20E94670140E03A
:100CC00064E180E20E94670140E064E58EE30E94F7
:100CD000670155C3222309F482C1862F90E0FC01ED
:100CE0003297E830F10508F04AC3EE5BFF4F0C94F1
:100CF000661480918B028330E9F028F4813041F052
:100D0000823079F030C08430F1F0853029F12BC089
:100D1000E2E5F2E083E5808F89E4818F8EE4828FC3
:100D200022C0E2E5F2E084E5808F82E5818F8EE4E7
:100D3000828F19C0E2E5F2E083E5808F81E5818F43
:100D400082E5828F10C0E2E5F2E080E2808F84E4E9
:100D5000818F83E4828F07C0E2E5F2E08FE4808F29
:100D600086E4818F828F80918C028330E9F028F4B1
:100D7000813041F0823079F030C08430F1F085303C
:100D800029F12BC0E2E5F2E083E5838F89E4848FCB
:100D90008EE4858F22C0E2E5F2E084E5838F82E570
:100DA000848F8EE4858F19C0E2E5F2E083E5838FBE
:100DB00081E5848F82E5858F10C0E2E5F2E080E274
:100DC000838F84E4848F83E4858F07C0E2E5F2E0BB
:100DD0008FE4838F86E4848F858FC2E5D2E041E182
:100DE00060E08B8D0E94670142E160E08C8D0E9483
:100DF000670143E160E08D8D0E946701C0C2609190
:100E000087027091880280E090E022E040E652E0A4
:100E10000E94C305C2E5D2E04EE060E48E850E94E8
:100E200067014FE060E48F850E946701A8C260916E
:100E3000890270918A0280E090E022E042E652E06E
:100E40000E94C305C2E5D2E04EE060E488890E94BA
:100E500067014FE060E489890E94670190C2609158
:100E60007F0270918002809181029091820227E03E
:100E700042E552E00E94C305C2E5D2E047E064E1EA
:100E800088810E94670149E064E189810E946701CD
:100E90004AE064E18A810E9467014BE064E18B8152
:100EA0000E9467014DE064E18C810E9467014EE081
:100EB00064E18D810E9467014FE064E18E810E94B0
:100EC00067015DC260918302709184028091850206
:100ED0009091860227E049E552E00E94C305C2E5F1
:100EE000D2E047E064E18F810E94670149E064E15C
:100EF00088850E9467014AE064E189850E94670154
:100F00004BE064E18A850E9467014DE064E18B85D6
:100F10000E9467014EE064E18C850E9467014FE00A
:100F200064E18D850E9467012AC28091910281113E
:100F300004C08BE28093700203C08DE28093700244
:100F400060918D0270918E0280E090E023E044E693
:100F500052E00E94C305C2E5D2E047E064E58E8D11
:100F60000E94670148E064E58A890E9467014AE0BF
:100F700064E58B890E9467014BE064E58C890E94DF
:100F80006701FDC180919202811104C08BE28093C0
:100F9000710203C08DE28093710260918D027091A5
:100FA0008E0280E090E023E047E652E00E94C30515
:100FB000C2E5D2E047E064E58F8D0E94670148E01A
:100FC00064E58D890E9467014AE064E58E890E948C
:100FD00067014BE064E58F890E946701D0C100235F
:100FE000E9F16E3019F06F30E9F0C9C160919302F8
:100FF00070E080E090E023E045E752E00E94C30506
:10100000C2E5D2E04DE060E48BA10E9467014EE0B2
:1010100060E48CA10E9467014FE060E48DA10E9412
:101020006701ADC16091940270E080E090E023E040
:1010300048E752E00E94C305C2E5D2E04DE064E11A
:101040008EA10E9467014EE064E18FA10E946701BA
:101050004FE064E188A50E94670191C1823009F4E4
:10106000DCC030F4882359F0813009F46FC087C1A7
:10107000843009F427C1853009F439C180C160E0AA
:1010800084EB90E00E94470160E489EC90E00E94CC
:10109000470164E18EED90E00E94470164E583EF33
:1010A00090E00E944701C2E5D2E041E160E0888D16
:1010B0000E94670142E160E0898D0E94670143E17F
:1010C00060E08A8D0E9467014EE060E48E850E9498
:1010D00067014FE060E48F850E94670147E064E1AB
:1010E00088810E94670149E064E189810E9467016B
:1010F0004AE064E18A810E9467014BE064E18B81F0
:101100000E9467014DE064E18C810E9467014EE01E
:1011100064E18D810E9467014FE064E18E810E944D
:10112000670147E064E58E8D0E94670148E064E551
:101130008A890E9467014AE064E58B890E94670101
:101140004BE064E58C890E94670119C160E084EB83
:1011500090E00E94470160E489EC90E00E94470122
:1011600064E18EED90E00E94470164E583EF90E03A
:101170000E944701C2E5D2E041E160E08B8D0E9410
:10118000670142E160E08C8D0E94670143E160E00D
:101190008D8D0E9467014EE060E488890E9467019E
:1011A0004FE060E489890E94670147E064E18F8134
:1011B0000E94670149E064E188850E9467014AE076
:1011C00064E189850E9467014BE064E18A850E94A1
:1011D00067014DE064E18B850E9467014EE064E1A8
:1011E0008C850E9467014FE064E18D850E94670154
:1011F00047E064E58F8D0E94670148E064E58D89D2
:101200000E9467014AE064E58E890E9467014BE015
:1012100064E58F890E946701B2C060E088E091E0D8
:101220000E94470160E48DE191E00E94470164E182
:1012300082E391E00E94470164E587E491E00E9427
:10124000470100E512E0F801608170E080E090E085
:1012500023E042E752E00E94C305C2E5D2E04DE040
:1012600060E088A10E9467014FE060E089A10E94D0
:10127000670140E160E08AA10E946701F801818175
:10128000882381F040E160E48FE40E94670141E13E
:1012900060E48EE40E94670142E160E480E20E9423
:1012A00067016DC040E160E48FE40E94670141E1A5
:1012B00060E486E40E94670142E160E486E40E9403
:1012C00067015DC060E08CE591E00E94470160E449
:1012D00081E791E00E94470164E184E891E00E9487
:1012E000470164E587E991E00E94470148C060E05A
:1012F0008CEA91E00E94470160E481EC91E00E9459
:10130000470164E186ED91E00E94470164E587E9C9
:1013100091E00E944701C3E9D2E0688170E080E07B
:1013200090E023E045E752E00E94C305698170E048
:1013300080E090E023E048E752E00E94C305C2E568
:10134000D2E04DE060E48BA10E9467014EE060E4D2
:101350008CA10E9467014FE060E48DA10E946701AB
:101360004DE064E18EA10E9467014EE064E18FA12F
:101370000E9467014FE064E188A50E946701DF9148
:10138000CF911F910F9108950F931F93CF93DF93E8
:10139000CDB7DEB764970FB6F894DEBF0FBECDBFF2
:1013A00060E08BEE91E00E9447011F9282E38F93F1
:1013B0001F9290E39F931F928F9385E092E09F93FB
:1013C0008F931F9284E18F938E010F5F1F4F1F93A6
:1013D0000F930E948F1460E4C8010E94470164E1EA
:1013E0008AE192E00E94470164E58FE292E00E9468
:1013F00047010FB6F894DEBF0FBECDBF64960FB69F
:10140000F894DEBF0FBECDBFDF91CF911F910F913A
:1014100008950E94020484E60E94D0030E94C40939
:1014200081E00E9485012FEF83ED90E32150804001
:101430009040E1F700C00000089540917F02509174
:101440008002609181027091820280E090E00E94AF
:101450007117E199FECF409183025091840260910F
:1014600085027091860284E090E00E947117E199F4
:10147000FECF6091870288E090E00E946417E199B6
:10148000FECF6091890289E090E00E946417E199A3
:10149000FECF60918D0270918E028AE090E00E94F2
:1014A0007917E199FECF60918F02709190028CE0E4
:1014B00090E00E947917E199FECF609191028EE051
:1014C00090E00E946417E199FECF609192028FE054
:1014D00090E00E946417E199FECF60918B0280E159
:1014E00090E00E946417E199FECF60918C0281E147
:1014F00090E00E946417E199FECF6091930282E12F
:1015000090E00E946417E199FECF6091940283E11C
:1015100090E00E946417E199FECF089580E090E08A
:101520000E94581760937F0270938002809381021B
:1015300090938202E199FECF84E090E00E945817D8
:101540006093830270938402809385029093860255
:10155000E199FECF88E090E00E94501790E09093D0
:10156000880280938702E199FECF89E090E00E9493
:10157000501790E090938A0280938902E199FECF00
:101580008AE090E00E945E1790938E0280938D0215
:10159000E199FECF8CE090E00E945E17909390025C
:1015A00080938F02E199FECF8EE090E00E94501769
:1015B00091E0811101C090E090939102E199FECFFA
:1015C0008FE090E00E94501791E0811101C090E0FF
:1015D00090939202E199FECF80E190E00E94501733
:1015E00080938B02E199FECF81E190E00E94501739
:1015F00080938C02E199FECF82E190E00E94501727
:1016000080939302E199FECF83E190E00E9450170E
:1016100080939402E199FECF08950E9442020E94B5
:10162000090AEEE4F2E01182108210924D020E944B
:101630008C040E94A4040E94F30400E020E040E037
:1016400060E080E00E94EF052FEF8EE994E22150E8
:1016500080409040E1F700C00000CEE4D2E0EE24EC
:10166000E3940F2EF3E9AF2EF2E0BF2EF02D689435
:10167000332431F80F2EFAE02F2EF02D0F2EFFE736
:10168000CF2EF2E0DF2EF02D0F2EF0E44F2EF2E4FD
:101690005F2EFFE06F2E712CF02D0F2EF0E58F2EB8
:1016A000F2E09F2EF02D0E940403182F0E94FC02EE
:1016B000F82E8881882361F0188200914C022091D5
:1016C0004B0240914A026091490289810E94EF05D4
:1016D00080914802882331F010924802809149029B
:1016E0000E94F90480914C02882331F010924C0240
:1016F000809149020E94B40580914A02811192C0F2
:1017000080914B028111FBC18981823091F128F4D3
:10171000882351F08130D1F0C6CF843009F456C00F
:10172000853009F469C0BFCF113019F4E982E8822D
:10173000BACF123019F43982E882B5CFFF2009F40C
:10174000B2CFE0924A0230924902ADCF113019F483
:101750003982E882A8CF123019F41982E882A3CF27
:10176000FF2009F4A0CFE0924A0286E0809349026C
:101770009ACF113019F41982E8820CC0123019F492
:10178000E982E88207C0FF2029F0E0924A02209215
:101790004902E8820E9460040E943F04F4018081B3
:1017A00090E020914602309147028217930721F47E
:1017B0003181209145023213E88290934702809351
:1017C0004602F4018181809345026DCF113021F4EE
:1017D00085E08983E88267CF123021F485E0898330
:1017E000E88261CFFF2009F45ECFE0924A028CE0EC
:1017F00080934902E88257CF113021F484E0898335
:10180000E88251CF123021F484E08983E8824BCF03
:10181000FF2009F448CFE0924A02FEE0F09349022B
:10182000E88241CF80914B0281119CC5E091490231
:101830008E2F90E0FC013197EF30F10508F033CFA7
:10184000E65BFF4F0C946614113029F485E0809319
:101850004902E88228CF123029F484E080934902BB
:10186000E88221CFFF2009F41ECF10924A02E092B5
:101870004B02E88218CF113029F483E080934902AB
:10188000E88211CF123021F430924902E8820BCF66
:10189000FF2009F408CF10924A02E0924B02E8823E
:1018A00002CF113029F484E080934902E882FBCE14
:1018B000123029F485E080934902E882F4CEFF20BB
:1018C00009F4F1CE10924A02E0924B02E882EBCE8C
:1018D000113021F430924902E882E5CE123029F429
:1018E00083E080934902E882DECEFF2009F4DBCE5C
:1018F00010924A02E0924B02E882D5CE113029F4D0
:1019000089E080934902E882CECE123029F488E043
:1019100080934902E882C7CEFF2009F4C4CE10921A
:101920004A02E0924B02E882BECE113029F487E0F1
:1019300080934902E882B7CE123029F486E0809382
:101940004902E882B0CEFF2009F4ADCE10924A02DF
:10195000E0924B02E882A7CE113029F488E0809310
:101960004902E882A0CE123029F489E0809349022E
:10197000E88299CEFF2009F496CE10924A02E092B6
:101980004B02E88290CE113029F486E08093490220
:10199000E88289CE123029F487E080934902E882F8
:1019A00082CEFF2009F47FCE10924A02E0924B02D1
:1019B000E88279CE113029F48BE080934902E882E5
:1019C00072CE123029F48BE080934902E8826BCE0C
:1019D000FF2009F468CE10924A0210924B0284E074
:1019E0008983E88260CE113029F48DE0809349022A
:1019F000E88259CE123021F4E0924902E88253CEB7
:101A0000FF2009F450CE1092480210924A02109220
:101A1000440210924902E88239820E941D0A0E9403
:101A2000730141CE113021F4E0924902E8823BCEAD
:101A3000123029F48CE080934902E88234CEFF20F2
:101A400009F431CE1092480210924A0210924402D8
:101A500010924902E88239820E948E0A0E94730124
:101A600022CE113029F42FE020934902E8821BCEC8
:101A7000123021F4E0924902E88215CEFF2009F4E9
:101A800012CE10924A0210924B02E882E092440277
:101A90000ACE113021F4E0924902E88204CE1230DD
:101AA00029F48EE080934902E882FDCDFF2009F4FD
:101AB000FACD10924A0210924B02E882E092440260
:101AC000F2CD113021F420924902E882ECCD12309F
:101AD00021F420924902E882E6CDFF2009F4E3CD0B
:101AE00080E00E94F301DFCD1092480210924A027A
:101AF0001092440210924902E8823982D4CDE091DA
:101B000049028E2F90E0FC013197E930F10508F091
:101B1000CACDE75AFF4F0C946614113009F5E882DC
:101B2000E0924802F6018485823071F018F4813029
:101B300041F012C0833061F0853071F4F601E48623
:101B4000B2CDF6013486AFCD83E0F6018487ABCD0C
:101B500084E0F6018487A7CD85E0F6018487A3CDD4
:101B6000123009F5E882E0924802F601848582305D
:101B700081F018F4813049F012C0833069F085306B
:101B800071F484E0F60184878ECD85E0F6018487C8
:101B90008ACDF601E48687CDF601348684CD83E0D4
:101BA000F601848780CDFF2009F47DCD10924B0291
:101BB0001092480210924A02E8821092490273CDB4
:101BC0001130F9F4E882E0924802F60180859185AF
:101BD0008634910528F086E490E09187808763CD74
:101BE00020914D02222319F0213031F05CCD019675
:101BF000F6019187808757CD0A96F60191878087F5
:101C000052CD1230D1F4E882E0924802F60180858C
:101C10009185009709F447CD20914D02222319F0B8
:101C2000213031F040CD0197F601918780873BCD7F
:101C30000A97F6019187808736CDFF2009F433CDCE
:101C400080914D02811103C0E0924D020AC01092B2
:101C50004D0210924B021092480210924A021092CA
:101C60004902E88220CD113009F05FC0E882E0929D
:101C70004802F60180819181A281B3818034F2E42F
:101C80009F07FFE0AF07B10530F0F60140825182B7
:101C90006282738208CD20914D022230F1F028F447
:101CA000222349F0213081F0FECC243051F1F8F0AC
:101CB000253089F1F8CC0196A11DB11DF601808374
:101CC0009183A283B383EFCC0A96A11DB11DF601C7
:101CD00080839183A283B383E6CC8C599F4FAF4F0F
:101CE000BF4FF60180839183A283B383DCCC8851FC
:101CF0009C4FAF4FBF4FF60180839183A283B38384
:101D0000D2CC805F984DAF4FBF4FF6018083918357
:101D1000A283B383C8CC80569947AE4FBF4FF6011C
:101D200080839183A283B383BECC123009F057C065
:101D3000E882E0924802F60180819181A281B3811C
:101D40000097A105B10509F4AECC20914D022230D7
:101D5000F1F028F4222349F0213081F0A4CC243082
:101D600051F1F8F0253089F19ECC0197A109B10914
:101D7000F60180839183A283B38395CC0A97A1094E
:101D8000B109F60180839183A283B3838CCC8456FE
:101D90009109A109B109F60180839183A283B383DC
:101DA00082CC885E9340A109B109F60180839183BA
:101DB000A283B38378CC80519742A109B109F6017F
:101DC00080839183A283B3836ECC805A9648A140CE
:101DD000B109F60180839183A283B38364CCFF2091
:101DE00009F461CC80914D02853020F48F5F80939F
:101DF0004D020AC010924D0210924B0210924802FE
:101E000010924A0210924902E8824DCC113071F5CD
:101E1000E882E0924802F6018289811124C0868519
:101E200097858A34F1E09F0730F08AE491E0F6016B
:101E30009787868738CC20914D02213049F018F0E1
:101E4000223059F030CC0196F601978786872BCC4B
:101E50000A96F6019787868726CC8C599F4FF60104
:101E60009787868720CCF601128A1DCC123009F0A4
:101E700049C0E882E0924802F6018289882321F174
:101E8000868597858A34F1E09F0730F08AE491E0F7
:101E9000F6019787868707CC20914D02213049F0C3
:101EA00018F0223059F0FFCB0196F601978786870C
:101EB000FACB0A96F60197878687F5CB8C599F4F08
:101EC000F60197878687EFCBF60186859785009781
:101ED00009F4E9CB20914D02213049F018F022306D
:101EE00059F0E1CB0197F60197878687DCCB0A97FB
:101EF000F60197878687D7CB84569109F601978795
:101F00008687D1CBFF2009F4CECB80914D02823061
:101F100020F48F5F80934D020AC010924D02109200
:101F20004B021092480210924A0210924902E88233
:101F3000BACB113009F5E882E0924802F6018585B6
:101F4000823071F018F4813041F012C0833061F0BA
:101F5000853071F4F601E586A6CBF6013586A3CB74
:101F600083E0F60185879FCB84E0F60185879BCBD4
:101F700085E0F601858797CB123009F5E882E0927B
:101F80004802F6018585823081F018F4813049F0ED
:101F900012C0833069F0853071F484E0F6018587E2
:101FA00082CB85E0F60185877ECBF601E5867BCB8B
:101FB000F601358678CB83E0F601858774CBFF2068
:101FC00009F471CB10924B021092480210924A020F
:101FD000E8821092490267CB1130F9F4E882E0926E
:101FE0004802F601828593858634910528F086E4BF
:101FF00090E09387828757CB20914D02222319F0DE
:10200000213031F050CB0196F601938782874BCB7C
:102010000A96F6019387828746CB1230D1F4E88284
:10202000E0924802F60182859385009709F43BCB44
:1020300020914D02222319F0213031F034CB019749
:10204000F601938782872FCB0A97F60193878287C1
:102050002ACBFF2009F427CB80914D02811103C0C8
:10206000E0924D020AC010924D0210924B02109263
:10207000480210924A0210924902E88214CB1130B1
:1020800009F05FC0E882E0924802F6018481958100
:10209000A681B7818034F2E49F07FFE0AF07B10566
:1020A00030F0F6014482558266827782FCCA209124
:1020B0004D022230F1F028F4222349F0213081F042
:1020C000F2CA243051F1F8F0253089F1ECCA0196BA
:1020D000A11DB11DF60184839583A683B783E3CA4E
:1020E0000A96A11DB11DF60184839583A683B7834B
:1020F000DACA8C599F4FAF4FBF4FF6018483958347
:10210000A683B783D0CA88519C4FAF4FBF4FF6010B
:1021100084839583A683B783C6CA805F984DAF4FEB
:10212000BF4FF60184839583A683B783BCCA8056CC
:102130009947AE4FBF4FF60184839583A683B7833B
:10214000B2CA123009F057C0E882E0924802F601A4
:1021500084819581A681B7810097A105B10509F415
:10216000A2CA20914D022230F1F028F4222349F036
:10217000213081F098CA243051F1F8F0253089F1EE
:1021800092CA0197A109B109F60184839583A683B8
:10219000B78389CA0A97A109B109F6018483958397
:1021A000A683B78380CA84569109A109B109F601B3
:1021B00084839583A683B78376CA885E9340A109FA
:1021C000B109F60184839583A683B7836CCA8051D5
:1021D0009742A109B109F60184839583A683B78349
:1021E00062CA805A9648A140B109F601848395835A
:1021F000A683B78358CAFF2009F455CA80914D02BF
:10220000853020F48F5F80934D020AC010924D02FA
:1022100010924B021092480210924A021092490208
:10222000E88241CA113071F5E882E0924802F60175
:102230008389811124C0808991898A34F1E09F07C4
:1022400030F08AE491E0F601918B808B2CCA2091CA
:102250004D02213049F018F0223059F024CA01967D
:10226000F601918B808B1FCA0A96F601918B808BA9
:102270001ACA8C599F4FF601918B808B14CAF601B4
:10228000138A11CA123009F049C0E882E09248026C
:10229000F6018389882321F1808991898A34F1E0CC
:1022A0009F0730F08AE491E0F601918B808BFBC9A7
:1022B00020914D02213049F018F0223059F0F3C935
:1022C0000196F601918B808BEEC90A96F601918BEF
:1022D000808BE9C98C599F4FF601918B808BE3C9A4
:1022E000F60180899189009709F4DDC920914D029A
:1022F000213049F018F0223059F0D5C90197F60184
:10230000918B808BD0C90A97F601918B808BCBC9BA
:1023100084569109F601918B808BC5C9FF2009F481
:10232000C2C980914D02823020F48F5F80934D02AC
:102330000AC010924D0210924B0210924802109265
:102340004A0210924902E882AEC910924B021092E2
:10235000480210924A021092440210924902E88206
:102360003982A1C980914402882309F49CC98091D3
:1023700049028E3031F08F3091F1813009F093C9EC
:102380005DC0113071F4E882E0924C02F501808169
:10239000843618F024E6208386C98F5FF501808398
:1023A00082C9123069F4E882E0924C02F501808122
:1023B000811102C0108277C98150F501808373C9F1
:1023C000FF2009F470C910924B021092480210923B
:1023D0004A021092440210924902E88264C9113004
:1023E00079F4E882E0924C02F5018181843618F09C
:1023F00024E6218358C9F50180818F5F808353C90A
:10240000123069F4E882E0924C02F5018181811179
:1024100002C0118248C98150F501818344C9FF205F
:1024200009F441C910924B021092480210924A02DC
:102430001092440210924902E88235C910924B0270
:102440001092480210924A021092440210924902DD
:10245000E882398228C90F931F93042F10E0F801F6
:102460003197E730F10588F4EE59FF4F0C9466146C
:10247000AA980BC0AB9809C0AC9807C0AD9805C02E
:10248000AE9803C0AF9801C0DC9898E29A95F1F736
:102490008FB9779BFECF88E28A95F1F76FB9779B6A
:1024A000FECF98E29A95F1F750E0FA013197E730C4
:1024B000F10588F4E759FF4F0C946614AA9A0BC0F3
:1024C000AB9A09C0AC9A07C0AD9A05C0AE9A03C0DA
:1024D000AF9A01C0DC9A1F910F91089585B38C6F5C
:1024E00085BBDC9A89E58DB981E08EB98FE19EE4E8
:1024F0000197F1F700C00000089585B38C6F85BB8C
:10250000DC9A81E58DB981E08EB98FE19EE4019777
:10251000F1F700C00000089510BC83E089B988E09D
:102520008AB98EE880BD08950E94A8120C94891380
:102530000E94821358F00E947B1340F029F45F3F01
:1025400029F00C94721351110C94BD130C94781350
:102550000E949A1368F39923B1F3552391F3951BC5
:10256000550BBB27AA2762177307840738F09F5FB4
:102570005F4F220F331F441FAA1FA9F335D00E2E21
:102580003AF0E0E832D091505040E695001CCAF78E
:102590002BD0FE2F29D0660F771F881FBB1F261751
:1025A00037074807AB07B0E809F0BB0B802DBF0128
:1025B000FF2793585F4F3AF09E3F510578F00C94F7
:1025C00072130C94BD135F3FE4F3983ED4F38695E9
:1025D00077956795B795F7959F5FC9F7880F911D18
:1025E0009695879597F90895E1E0660F771F881F04
:1025F000BB1F621773078407BA0720F0621B730BB7
:10260000840BBA0BEE1F88F7E09508950E94A21381
:1026100088F09F5798F0B92F9927B751B0F0E1F0A3
:10262000660F771F881F991F1AF0BA95C9F714C053
:10263000B13091F00E94BC13B1E008950C94BC132A
:10264000672F782F8827B85F39F0B93FCCF386958C
:1026500077956795B395D9F73EF4909580957095E9
:1026600061957F4F8F4F9F4F0895E89409C097FB66
:102670003EF490958095709561957F4F8F4F9F4F59
:102680009923A9F0F92F96E9BB279395F69587959D
:1026900077956795B795F111F8CFFAF4BB0F11F460
:1026A00060FF1BC06F5F7F4F8F4F9F4F16C0882307
:1026B00011F096E911C0772321F09EE8872F762F3D
:1026C00005C0662371F096E8862F70E060E02AF07E
:1026D0009A95660F771F881FDAF7880F969587956A
:1026E00097F9089597F99F6780E870E060E0089592
:1026F0009FEF80EC089500240A941616170618061A
:102700000906089500240A941216130614060506F5
:102710000895092E0394000C11F4882352F0BB0F86
:1027200040F4BF2B11F460FF04C06F5F7F4F8F4FE9
:102730009F4F089557FD9058440F551F59F05F3F24
:1027400071F04795880F97FB991F61F09F3F79F0D3
:1027500087950895121613061406551FF2CF469555
:10276000F1DF08C0161617061806991FF1CF8695D7
:102770007105610508940895E894BB2766277727BB
:10278000CB0197F908950E94D6130C9489130E94E7
:102790007B1338F00E94821320F0952311F00C94E3
:1027A00072130C94781311240C94BD130E949A1385
:1027B00070F3959FC1F3950F50E0551F629FF00194
:1027C000729FBB27F00DB11D639FAA27F00DB11DAD
:1027D000AA1F649F6627B00DA11D661F829F222736
:1027E000B00DA11D621F739FB00DA11D621F839FBD
:1027F000A00D611D221F749F3327A00D611D231F93
:10280000849F600D211D822F762F6A2F11249F57E0
:1028100050409AF0F1F088234AF0EE0FFF1FBB1FE3
:10282000661F771F881F91505040A9F79E3F5105A2
:1028300080F00C9472130C94BD135F3FE4F3983E48
:10284000D4F3869577956795B795F795E7959F5F4C
:10285000C1F7FE2B880F911D9695879597F90895DE
:1028600097FB072E16F4009407D077FD09D00E943D
:102870007B1407FC05D03EF4909581959F4F0895F9
:10288000709561957F4F0895A1E21A2EAA1BBB1B7C
:10289000FD010DC0AA1FBB1FEE1FFF1FA217B3072C
:1028A000E407F50720F0A21BB30BE40BF50B661F42
:1028B000771F881F991F1A9469F760957095809506
:1028C00090959B01AC01BD01CF010895EE0FFF1F54
:1028D0000590F491E02D0994A29FB001B39FC0012F
:1028E000A39F700D811D1124911DB29F700D811D3C
:1028F0001124911D0895AA1BBB1B51E107C0AA1FFB
:10290000BB1FA617B70710F0A61BB70B881F991F90
:102910005A95A9F780959095BC01CD010895AEE038
:10292000B0E0E5E9F4E10C949C170D891E898F89CC
:10293000988D26E02C831A83098397FF02C080E0DC
:1029400090E801979E838D83AE01455E5F4F698D50
:102950007A8DCE0101960E94BF144D815E8157FD94
:102960000AC02F813885421753070CF49A01F801E9
:10297000E20FF31F10822E96E4E00C94B817ABE040
:10298000B0E0E5ECF4E10C948E176C017B018A0158
:10299000FC0117821682838181FFCCC1CE01019692
:1029A0003C01F6019381F70193FD859193FF81919D
:1029B0007F01882309F4BAC1853239F493FD8591EA
:1029C00093FF81917F01853229F4B60190E00E9446
:1029D000B616E7CF912C212C312CFFE1F315D8F05E
:1029E0008B3279F038F4803279F08332A1F4232DE0
:1029F00020611DC08D3261F0803369F4232D216088
:102A000016C0832D8260382EE32DE4603E2E2AC04E
:102A1000F32DF8601DC037FC2DC020ED280F2A30A3
:102A200040F08E32B9F436FC81C1232D2064322E61
:102A300019C036FE06C08AE0989E200D1124922E01
:102A400011C0EAE02E9E200D1124222EF32DF062FB
:102A50003F2E08C08C3621F4832D8068382E02C0AA
:102A6000883641F4F70193FD859193FF81917F01B1
:102A70008111B3CF982F9F7D9554933028F40C5F2C
:102A80001F4F9FE399830DC0833631F0833771F078
:102A9000833509F059C021C0F801808189830E5F18
:102AA0001F4F88248394912C530113C02801F2E016
:102AB0004F0E511CF801A080B18036FE03C0692D75
:102AC00070E002C06FEF7FEFC5010E94AB164C01B2
:102AD0008201F32DFF773F2E16C0280122E0420E1F
:102AE000511CF801A080B18036FE03C0692D70E052
:102AF00002C06FEF7FEFC5010E94A0164C01F32DBD
:102B0000F0683F2E820133FC1BC0822D90E08816B6
:102B10009906B0F4B60180E290E00E94B6162A94BD
:102B2000F4CFF50137FC859137FE81915F01B60145
:102B300090E00E94B61621102A9421E0821A910892
:102B40008114910471F7E8C0843611F0893641F59B
:102B5000F80137FE07C060817181828193810C5F2B
:102B60001F4F08C060817181072E000C880B990BE4
:102B70000E5F1F4FF32DFF763F2E97FF09C09095F4
:102B80008095709561957F4F8F4F9F4FF0683F2ED6
:102B90002AE030E0A3010E94F216882E861845C074
:102BA000853731F4232D2F7EB22E2AE030E025C068
:102BB000932D997FB92E8F36C1F018F4883579F0AE
:102BC000B5C0803719F0883721F0B0C0E92FE06137
:102BD000BE2EB4FE0DC0FB2DF460BF2E09C034FE26
:102BE0000AC0292F2660B22E06C028E030E005C0BA
:102BF00020E130E002C020E132E0F801B7FE07C07A
:102C000060817181828193810C5F1F4F06C060815A
:102C1000718180E090E00E5F1F4FA3010E94F216C9
:102C2000882E8618FB2DFF773F2E36FE0DC0232DF4
:102C30002E7FA22E891458F434FE0BC032FC09C03A
:102C4000832D8E7EA82E05C0B82CA32C03C0B82CD3
:102C500001C0B92CA4FE0FC0FE01E80DF11D80815A
:102C6000803321F49A2D997EA92E09C0A2FE06C0B8
:102C7000B394B39404C08A2D867809F0B394A3FC6E
:102C800011C0A0FE06C0B21488F4280C922C9B1828
:102C90000EC0B21460F4B60180E290E00E94B61655
:102CA000B394F7CFB21418F42B1802C0982C212C2F
:102CB000A4FE10C0B60180E390E00E94B616A2FE0A
:102CC00017C0A1FC03C088E790E002C088E590E04F
:102CD000B6010CC08A2D867859F0A1FE02C08BE2A5
:102CE00001C080E2A7FC8DE2B60190E00E94B6161A
:102CF000891438F4B60180E390E00E94B6169A94E5
:102D0000F7CF8A94F301E80DF11D8081B60190E0C0
:102D10000E94B6168110F5CF222009F442CEB601EA
:102D200080E290E00E94B6162A94F6CFF6018681E2
:102D3000978102C08FEF9FEF2B96E2E10C94AA17C8
:102D4000FC010590615070400110D8F78095909576
:102D50008E0F9F1F0895FC0161507040019001107B
:102D6000D8F7809590958E0F9F1F08950F931F930E
:102D7000CF93DF93FB01238121FD03C08FEF9FEFF2
:102D80002CC022FF16C0468157812481358142170D
:102D9000530744F4A081B1819D012F5F3F4F3183E0
:102DA00020838C93268137812F5F3F4F3783268383
:102DB00014C08B01EC01FB010084F185E02D099525
:102DC000892BE1F6D80116968D919C911797019663
:102DD00017969C938E931697CE01DF91CF911F91FA
:102DE0000F910895FA01AA27283051F1203181F17D
:102DF000E8946F936E7F6E5F7F4F8F4F9F4FAF4F03
:102E0000B1E03ED0B4E03CD0670F781F891F9A1F15
:102E1000A11D680F791F8A1F911DA11D6A0F711DC9
:102E2000811D911DA11D20D009F468943F912AE0D5
:102E3000269F11243019305D3193DEF6CF010895BD
:102E4000462F4770405D4193B3E00FD0C9F7F6CFEE
:102E5000462F4F70405D4A3318F0495D31FD4052B6
:102E6000419302D0A9F7EACFB4E0A695979587954C
:102E700077956795BA95C9F700976105710508952B
:102E80009B01AC010A2E06945795479537952795D7
:102E9000BA95C9F7620F731F841F951FA01D08956F
:102EA000E199FECF9FBB8EBBE09A99278DB3089521
:102EB000A6E1B0E044E050E00C948017A8E1B0E057
:102EC00042E050E00C948017262FE199FECF9FBB83
:102ED0008EBB2DBB0FB6F894E29AE19A0FBE019615
:102EE0000895242F0E946517252F0E9465170C94C2
:102EF00079170E946417272F0C946517DC01CB010A
:102F0000FC01E199FECF06C0FFBBEEBBE09A319613
:102F10000DB20D9241505040B8F708952F923F9254
:102F20004F925F926F927F928F929F92AF92BF92D9
:102F3000CF92DF92EF92FF920F931F93CF93DF9385
:102F4000CDB7DEB7CA1BDB0B0FB6F894DEBF0FBEE2
:102F5000CDBF09942A88398848885F846E847D842F
:102F60008C849B84AA84B984C884DF80EE80FD8031
:102F70000C811B81AA81B981CE0FD11D0FB6F894A7
:0E2F8000DEBF0FBECDBFED010895F894FFCF68
:102F8E002020202020202020202020202020202033
:102F9E0020202020003C3C53687574646F776E20AF
:102FAE00726571756573743E3E004465766963653E
:102FBE00207368757474696E6720646F776E00692C
:102FCE006E20582073656320202020202020202092
:102FDE0020202000204368616E6E656C3A582C20CC
:102FEE00547970653A5858580020416D706C697468
:102FFE007564653A20582E58585B565D2000204661
:10300E007265713A20582E5858582E5858585B48A9
:10301E007A5D0020426961733A2058582E58585BE9
:10302E00565D202020202000566F6C746167652845
:10303E00426174293A582E58585B565D0045787493
:10304E0065726E616C20506F7765723A20585858D1
:10305E002000202053657474696E67732020202031
:10306E0020202020202000202053687574646F7764
:10307E006E20202020202020202020003C3C50725A
:10308E006F66696C652053657474696E67733E3E36
:10309E00002020536176652050726F66696C650959
:1030AE002020200020204C6F61642050726F6669D2
:1030BE006C650920202000202020202020203C426A
:1030CE0041434B3E202020202020200020203C3C4D
:1030DE004C43442053657474696E67733E3E2020E2
:1030EE000020204272696768746E6573733A58588F
:1030FE00585B255D20002020436F6E7472617374DF
:10310E003A20205858585B255D20004D6F62696C3F
:10311E00652046756E6374696F6E2047656E6572C5
:10312E0061746F7200204669726D77617265205608
:10313E0025632E25632E2563200020204B686F6D9E
:10314E004C6162732044657369676E2020200020F5
:10315E00203C496E697469616C697A696E672E2EBE
:04316E002E3E2000D1
:00000001FF
